{
  "_format": "hh-sol-artifact-1",
  "contractName": "photoblock",
  "sourceName": "src/contract/Contract.sol",
  "abi": [
    {
      "inputs": [
        {
          "internalType": "string",
          "name": "_cid",
          "type": "string"
        }
      ],
      "name": "addCID",
      "outputs": [],
      "stateMutability": "nonpayable",
      "type": "function"
    },
    {
      "inputs": [],
      "name": "getCIDs",
      "outputs": [
        {
          "internalType": "string[]",
          "name": "",
          "type": "string[]"
        }
      ],
      "stateMutability": "view",
      "type": "function"
    },
    {
      "inputs": [],
      "name": "getUsername",
      "outputs": [
        {
          "internalType": "string",
          "name": "",
          "type": "string"
        }
      ],
      "stateMutability": "view",
      "type": "function"
    },
    {
      "inputs": [
        {
          "internalType": "string",
          "name": "_username",
          "type": "string"
        }
      ],
      "name": "setUsername",
      "outputs": [],
      "stateMutability": "nonpayable",
      "type": "function"
    }
  ],
  "bytecode": "0x608060405234801561001057600080fd5b50610a13806100206000396000f3fe608060405234801561001057600080fd5b506004361061004c5760003560e01c8063681f3e6d14610051578063ed59313a1461006f578063f7602d0d1461008b578063fa0f1346146100a9575b600080fd5b6100596100c5565b6040516100669190610413565b60405180910390f35b6100896004803603810190610084919061057e565b610196565b005b6100936101ee565b6040516100a091906106d3565b60405180910390f35b6100c360048036038101906100be919061057e565b610306565b005b60606000803373ffffffffffffffffffffffffffffffffffffffff1673ffffffffffffffffffffffffffffffffffffffff168152602001908152602001600020600001805461011390610724565b80601f016020809104026020016040519081016040528092919081815260200182805461013f90610724565b801561018c5780601f106101615761010080835404028352916020019161018c565b820191906000526020600020905b81548152906001019060200180831161016f57829003601f168201915b5050505050905090565b60008060003373ffffffffffffffffffffffffffffffffffffffff1673ffffffffffffffffffffffffffffffffffffffff1681526020019081526020016000209050818160000190816101e9919061090b565b505050565b60606000803373ffffffffffffffffffffffffffffffffffffffff1673ffffffffffffffffffffffffffffffffffffffff168152602001908152602001600020600101805480602002602001604051908101604052809291908181526020016000905b828210156102fd57838290600052602060002001805461027090610724565b80601f016020809104026020016040519081016040528092919081815260200182805461029c90610724565b80156102e95780601f106102be576101008083540402835291602001916102e9565b820191906000526020600020905b8154815290600101906020018083116102cc57829003601f168201915b505050505081526020019060010190610251565b50505050905090565b60008060003373ffffffffffffffffffffffffffffffffffffffff1673ffffffffffffffffffffffffffffffffffffffff1681526020019081526020016000209050806001018290806001815401808255809150506001900390600052602060002001600090919091909150908161037e919061090b565b505050565b600081519050919050565b600082825260208201905092915050565b60005b838110156103bd5780820151818401526020810190506103a2565b60008484015250505050565b6000601f19601f8301169050919050565b60006103e582610383565b6103ef818561038e565b93506103ff81856020860161039f565b610408816103c9565b840191505092915050565b6000602082019050818103600083015261042d81846103da565b905092915050565b6000604051905090565b600080fd5b600080fd5b600080fd5b600080fd5b7f4e487b7100000000000000000000000000000000000000000000000000000000600052604160045260246000fd5b61048b826103c9565b810181811067ffffffffffffffff821117156104aa576104a9610453565b5b80604052505050565b60006104bd610435565b90506104c98282610482565b919050565b600067ffffffffffffffff8211156104e9576104e8610453565b5b6104f2826103c9565b9050602081019050919050565b82818337600083830152505050565b600061052161051c846104ce565b6104b3565b90508281526020810184848401111561053d5761053c61044e565b5b6105488482856104ff565b509392505050565b600082601f83011261056557610564610449565b5b813561057584826020860161050e565b91505092915050565b6000602082840312156105945761059361043f565b5b600082013567ffffffffffffffff8111156105b2576105b1610444565b5b6105be84828501610550565b91505092915050565b600081519050919050565b600082825260208201905092915050565b6000819050602082019050919050565b600082825260208201905092915050565b600061060f82610383565b61061981856105f3565b935061062981856020860161039f565b610632816103c9565b840191505092915050565b60006106498383610604565b905092915050565b6000602082019050919050565b6000610669826105c7565b61067381856105d2565b935083602082028501610685856105e3565b8060005b858110156106c157848403895281516106a2858261063d565b94506106ad83610651565b925060208a01995050600181019050610689565b50829750879550505050505092915050565b600060208201905081810360008301526106ed818461065e565b905092915050565b7f4e487b7100000000000000000000000000000000000000000000000000000000600052602260045260246000fd5b6000600282049050600182168061073c57607f821691505b60208210810361074f5761074e6106f5565b5b50919050565b60008190508160005260206000209050919050565b60006020601f8301049050919050565b600082821b905092915050565b6000600883026107b77fffffffffffffffffffffffffffffffffffffffffffffffffffffffffffffffff8261077a565b6107c1868361077a565b95508019841693508086168417925050509392505050565b6000819050919050565b6000819050919050565b60006108086108036107fe846107d9565b6107e3565b6107d9565b9050919050565b6000819050919050565b610822836107ed565b61083661082e8261080f565b848454610787565b825550505050565b600090565b61084b61083e565b610856818484610819565b505050565b5b8181101561087a5761086f600082610843565b60018101905061085c565b5050565b601f8211156108bf5761089081610755565b6108998461076a565b810160208510156108a8578190505b6108bc6108b48561076a565b83018261085b565b50505b505050565b600082821c905092915050565b60006108e2600019846008026108c4565b1980831691505092915050565b60006108fb83836108d1565b9150826002028217905092915050565b61091482610383565b67ffffffffffffffff81111561092d5761092c610453565b5b6109378254610724565b61094282828561087e565b600060209050601f8311600181146109755760008415610963578287015190505b61096d85826108ef565b8655506109d5565b601f19841661098386610755565b60005b828110156109ab57848901518255600182019150602085019450602081019050610986565b868310156109c857848901516109c4601f8916826108d1565b8355505b6001600288020188555050505b50505050505056fea26469706673582212202a19af14c3b33b344a2e9a976451a01eb72980beabda18cff3ca2e865226d0b364736f6c63430008130033",
  "linkReferences": {},
  "deployedLinkReferences": {}
}